{
    "_format": "hh-sol-artifact-1",
    "contractName": "data",
    "sourceName": "contracts/CoronosToken.sol",
    "abi": [
        {
            "inputs": [],
            "stateMutability": "nonpayable",
            "type": "constructor"
        },
        {
            "inputs": [],
            "name": "contractBalance",
            "outputs": [
                {
                    "internalType": "uint256",
                    "name": "",
                    "type": "uint256"
                }
            ],
            "stateMutability": "view",
            "type": "function"
        },
        {
            "inputs": [],
            "name": "countTests",
            "outputs": [
                {
                    "internalType": "uint256",
                    "name": "",
                    "type": "uint256"
                }
            ],
            "stateMutability": "view",
            "type": "function"
        },
        {
            "inputs": [
                {
                    "internalType": "uint256",
                    "name": "_reservePrice",
                    "type": "uint256"
                }
            ],
            "name": "createTest",
            "outputs": [],
            "stateMutability": "nonpayable",
            "type": "function"
        },
        {
            "inputs": [
                {
                    "internalType": "address",
                    "name": "_companyAddress",
                    "type": "address"
                }
            ],
            "name": "getAllUserIds",
            "outputs": [
                {
                    "internalType": "uint256[]",
                    "name": "",
                    "type": "uint256[]"
                }
            ],
            "stateMutability": "view",
            "type": "function"
        },
        {
            "inputs": [
                {
                    "internalType": "uint256",
                    "name": "_testId",
                    "type": "uint256"
                }
            ],
            "name": "getTestCount",
            "outputs": [
                {
                    "internalType": "uint256",
                    "name": "",
                    "type": "uint256"
                }
            ],
            "stateMutability": "view",
            "type": "function"
        },
        {
            "inputs": [
                {
                    "internalType": "uint256",
                    "name": "_testId",
                    "type": "uint256"
                }
            ],
            "name": "getTestDetails",
            "outputs": [
                {
                    "components": [
                        {
                            "internalType": "uint256",
                            "name": "reservePrice",
                            "type": "uint256"
                        },
                        {
                            "internalType": "uint256",
                            "name": "testCount",
                            "type": "uint256"
                        }
                    ],
                    "internalType": "struct data.companyMetadata",
                    "name": "",
                    "type": "tuple"
                }
            ],
            "stateMutability": "view",
            "type": "function"
        },
        {
            "inputs": [
                {
                    "internalType": "uint256",
                    "name": "",
                    "type": "uint256"
                }
            ],
            "name": "metadataMapping",
            "outputs": [
                {
                    "internalType": "uint256",
                    "name": "reservePrice",
                    "type": "uint256"
                },
                {
                    "internalType": "uint256",
                    "name": "testCount",
                    "type": "uint256"
                }
            ],
            "stateMutability": "view",
            "type": "function"
        },
        {
            "inputs": [
                {
                    "internalType": "address payable",
                    "name": "_creatorAddress",
                    "type": "address"
                },
                {
                    "internalType": "address payable",
                    "name": "_companyAddress",
                    "type": "address"
                },
                {
                    "internalType": "uint256",
                    "name": "_testId",
                    "type": "uint256"
                }
            ],
            "name": "sendToCreator",
            "outputs": [],
            "stateMutability": "payable",
            "type": "function"
        },
        {
            "inputs": [
                {
                    "internalType": "address",
                    "name": "_userAddress",
                    "type": "address"
                }
            ],
            "name": "showUserStake",
            "outputs": [
                {
                    "internalType": "uint256",
                    "name": "",
                    "type": "uint256"
                }
            ],
            "stateMutability": "view",
            "type": "function"
        },
        {
            "inputs": [],
            "name": "stakeByCompany",
            "outputs": [],
            "stateMutability": "payable",
            "type": "function"
        },
        {
            "inputs": [
                {
                    "internalType": "address",
                    "name": "",
                    "type": "address"
                }
            ],
            "name": "stakeMapping",
            "outputs": [
                {
                    "internalType": "uint256",
                    "name": "",
                    "type": "uint256"
                }
            ],
            "stateMutability": "view",
            "type": "function"
        },
        {
            "inputs": [],
            "name": "testId",
            "outputs": [
                {
                    "internalType": "uint256",
                    "name": "",
                    "type": "uint256"
                }
            ],
            "stateMutability": "view",
            "type": "function"
        },
        {
            "inputs": [
                {
                    "internalType": "address",
                    "name": "",
                    "type": "address"
                },
                {
                    "internalType": "uint256",
                    "name": "",
                    "type": "uint256"
                }
            ],
            "name": "testIdsMapping",
            "outputs": [
                {
                    "internalType": "uint256",
                    "name": "",
                    "type": "uint256"
                }
            ],
            "stateMutability": "view",
            "type": "function"
        },
        {
            "inputs": [
                {
                    "internalType": "address payable",
                    "name": "_companyAddress",
                    "type": "address"
                }
            ],
            "name": "withdraw",
            "outputs": [],
            "stateMutability": "payable",
            "type": "function"
        }
    ],
    "bytecode": "0x608060405234801561001057600080fd5b50336000806101000a81548173ffffffffffffffffffffffffffffffffffffffff021916908373ffffffffffffffffffffffffffffffffffffffff16021790555061105d806100606000396000f3fe6080604052600436106100dd5760003560e01c80634865f28d1161007f57806362c98d7e1161005957806362c98d7e146102b95780638b7afe2e146102d5578063bd6672c014610300578063e83faf031461033d576100dd565b80634865f28d1461024957806351cff8d91461027257806353e05dc71461028e576100dd565b80632c978286116100bb5780632c978286146101995780633c85ad01146101d75780634222d2c11461020257806345d63de81461020c576100dd565b806304996f51146100e25780631bd59acc1461011f5780632927168e1461015c575b600080fd5b3480156100ee57600080fd5b5061010960048036038101906101049190610ab8565b61037a565b6040516101169190610e04565b60405180910390f35b34801561012b57600080fd5b5061014660048036038101906101419190610b95565b6103c3565b6040516101539190610de9565b60405180910390f35b34801561016857600080fd5b50610183600480360381019061017e9190610b95565b610404565b6040516101909190610e04565b60405180910390f35b3480156101a557600080fd5b506101c060048036038101906101bb9190610b95565b610424565b6040516101ce929190610e1f565b60405180910390f35b3480156101e357600080fd5b506101ec610448565b6040516101f99190610e04565b60405180910390f35b61020a61044e565b005b34801561021857600080fd5b50610233600480360381019061022e9190610ab8565b6104a6565b6040516102409190610d67565b60405180910390f35b34801561025557600080fd5b50610270600480360381019061026b9190610b95565b61053d565b005b61028c60048036038101906102879190610ae1565b610689565b005b34801561029a57600080fd5b506102a36107c5565b6040516102b09190610e04565b60405180910390f35b6102d360048036038101906102ce9190610b0a565b6107cb565b005b3480156102e157600080fd5b506102ea610a0e565b6040516102f79190610e04565b60405180910390f35b34801561030c57600080fd5b5061032760048036038101906103229190610ab8565b610a16565b6040516103349190610e04565b60405180910390f35b34801561034957600080fd5b50610364600480360381019061035f9190610b59565b610a2e565b6040516103719190610e04565b60405180910390f35b6000600360008373ffffffffffffffffffffffffffffffffffffffff1673ffffffffffffffffffffffffffffffffffffffff168152602001908152602001600020549050919050565b6103cb610a5f565b60056000838152602001908152602001600020604051806040016040529081600082015481526020016001820154815250509050919050565b600060056000838152602001908152602001600020600101549050919050565b60056020528060005260406000206000915090508060000154908060010154905082565b60025481565b34600360003373ffffffffffffffffffffffffffffffffffffffff1673ffffffffffffffffffffffffffffffffffffffff168152602001908152602001600020600082825461049d9190610e92565b92505081905550565b6060600460008373ffffffffffffffffffffffffffffffffffffffff1673ffffffffffffffffffffffffffffffffffffffff16815260200190815260200160002080548060200260200160405190810160405280929190818152602001828054801561053157602002820191906000526020600020905b81548152602001906001019080831161051d575b50505050509050919050565b80600360003373ffffffffffffffffffffffffffffffffffffffff1673ffffffffffffffffffffffffffffffffffffffff16815260200190815260200160002054116105be576040517f08c379a00000000000000000000000000000000000000000000000000000000081526004016105b590610da9565b60405180910390fd5b600260008154809291906105d190610f6a565b91905055506000604051806040016040528083815260200160008152509050806005600060025481526020019081526020016000206000820151816000015560208201518160010155905050600460003373ffffffffffffffffffffffffffffffffffffffff1673ffffffffffffffffffffffffffffffffffffffff16815260200190815260200160002060025490806001815401808255809150506001900390600052602060002001600090919091909150555050565b8073ffffffffffffffffffffffffffffffffffffffff163373ffffffffffffffffffffffffffffffffffffffff16146106f7576040517f08c379a00000000000000000000000000000000000000000000000000000000081526004016106ee90610d89565b60405180910390fd5b8073ffffffffffffffffffffffffffffffffffffffff166108fc600360008473ffffffffffffffffffffffffffffffffffffffff1673ffffffffffffffffffffffffffffffffffffffff168152602001908152602001600020549081150290604051600060405180830381858888f1935050505015801561077c573d6000803e3d6000fd5b506000600360008373ffffffffffffffffffffffffffffffffffffffff1673ffffffffffffffffffffffffffffffffffffffff1681526020019081526020016000208190555050565b60015481565b3373ffffffffffffffffffffffffffffffffffffffff1660008054906101000a900473ffffffffffffffffffffffffffffffffffffffff1673ffffffffffffffffffffffffffffffffffffffff1614610859576040517f08c379a000000000000000000000000000000000000000000000000000000000815260040161085090610dc9565b60405180910390fd5b60056000828152602001908152602001600020600101600081548092919061088090610f6a565b919050555060606000600460008573ffffffffffffffffffffffffffffffffffffffff1673ffffffffffffffffffffffffffffffffffffffff1681526020019081526020016000208054905090508067ffffffffffffffff81111561090e577f4e487b7100000000000000000000000000000000000000000000000000000000600052604160045260246000fd5b60405190808252806020026020018201604052801561093c5781602001602082028036833780820191505090505b50915060006005600085815260200190815260200160002060000154905080600360008773ffffffffffffffffffffffffffffffffffffffff1673ffffffffffffffffffffffffffffffffffffffff16815260200190815260200160002060008282546109a99190610ee8565b9250508190555080600360008873ffffffffffffffffffffffffffffffffffffffff1673ffffffffffffffffffffffffffffffffffffffff16815260200190815260200160002060008282546109ff9190610e92565b92505081905550505050505050565b600047905090565b60036020528060005260406000206000915090505481565b60046020528160005260406000208181548110610a4a57600080fd5b90600052602060002001600091509150505481565b604051806040016040528060008152602001600081525090565b600081359050610a8881610fe2565b92915050565b600081359050610a9d81610ff9565b92915050565b600081359050610ab281611010565b92915050565b600060208284031215610aca57600080fd5b6000610ad884828501610a79565b91505092915050565b600060208284031215610af357600080fd5b6000610b0184828501610a8e565b91505092915050565b600080600060608486031215610b1f57600080fd5b6000610b2d86828701610a8e565b9350506020610b3e86828701610a8e565b9250506040610b4f86828701610aa3565b9150509250925092565b60008060408385031215610b6c57600080fd5b6000610b7a85828601610a79565b9250506020610b8b85828601610aa3565b9150509250929050565b600060208284031215610ba757600080fd5b6000610bb584828501610aa3565b91505092915050565b6000610bca8383610d49565b60208301905092915050565b6000610be182610e58565b610beb8185610e70565b9350610bf683610e48565b8060005b83811015610c27578151610c0e8882610bbe565b9750610c1983610e63565b925050600181019050610bfa565b5085935050505092915050565b6000610c41602683610e81565b91507f596f752063616e206f6e6c7920776974686472617720796f75722066756e647360008301527f206f6e6c792100000000000000000000000000000000000000000000000000006020830152604082019050919050565b6000610ca7601083610e81565b91507f7374616b65206d6f7265206669727374000000000000000000000000000000006000830152602082019050919050565b6000610ce7600e83610e81565b91507f41726520796f75206f776e65723f0000000000000000000000000000000000006000830152602082019050919050565b604082016000820151610d306000850182610d49565b506020820151610d436020850182610d49565b50505050565b610d5281610f60565b82525050565b610d6181610f60565b82525050565b60006020820190508181036000830152610d818184610bd6565b905092915050565b60006020820190508181036000830152610da281610c34565b9050919050565b60006020820190508181036000830152610dc281610c9a565b9050919050565b60006020820190508181036000830152610de281610cda565b9050919050565b6000604082019050610dfe6000830184610d1a565b92915050565b6000602082019050610e196000830184610d58565b92915050565b6000604082019050610e346000830185610d58565b610e416020830184610d58565b9392505050565b6000819050602082019050919050565b600081519050919050565b6000602082019050919050565b600082825260208201905092915050565b600082825260208201905092915050565b6000610e9d82610f60565b9150610ea883610f60565b9250827fffffffffffffffffffffffffffffffffffffffffffffffffffffffffffffffff03821115610edd57610edc610fb3565b5b828201905092915050565b6000610ef382610f60565b9150610efe83610f60565b925082821015610f1157610f10610fb3565b5b828203905092915050565b6000610f2782610f40565b9050919050565b6000610f3982610f40565b9050919050565b600073ffffffffffffffffffffffffffffffffffffffff82169050919050565b6000819050919050565b6000610f7582610f60565b91507fffffffffffffffffffffffffffffffffffffffffffffffffffffffffffffffff821415610fa857610fa7610fb3565b5b600182019050919050565b7f4e487b7100000000000000000000000000000000000000000000000000000000600052601160045260246000fd5b610feb81610f1c565b8114610ff657600080fd5b50565b61100281610f2e565b811461100d57600080fd5b50565b61101981610f60565b811461102457600080fd5b5056fea2646970667358221220a02ae6624ac1437b715e21f0f1c39cf8efec6764f714160a30d981eae8e07d1464736f6c63430008000033",
    "linkReferences": {},
    "deployedLinkReferences": {}
}